{
  "contractName": "EContract",
  "abi": [
    {
      "inputs": [],
      "payable": false,
      "stateMutability": "nonpayable",
      "type": "constructor"
    },
    {
      "constant": true,
      "inputs": [],
      "name": "e_contractCount",
      "outputs": [
        {
          "internalType": "uint256",
          "name": "",
          "type": "uint256"
        }
      ],
      "payable": false,
      "stateMutability": "view",
      "type": "function"
    },
    {
      "constant": true,
      "inputs": [
        {
          "internalType": "uint256",
          "name": "",
          "type": "uint256"
        }
      ],
      "name": "e_contracts",
      "outputs": [
        {
          "internalType": "uint256",
          "name": "id",
          "type": "uint256"
        },
        {
          "internalType": "uint256",
          "name": "createTime",
          "type": "uint256"
        },
        {
          "internalType": "string",
          "name": "content",
          "type": "string"
        },
        {
          "internalType": "uint256",
          "name": "state",
          "type": "uint256"
        },
        {
          "internalType": "string",
          "name": "nickname1",
          "type": "string"
        },
        {
          "internalType": "string",
          "name": "nickname2",
          "type": "string"
        },
        {
          "internalType": "uint256",
          "name": "idCard1",
          "type": "uint256"
        },
        {
          "internalType": "uint256",
          "name": "idCard2",
          "type": "uint256"
        },
        {
          "internalType": "address",
          "name": "par1",
          "type": "address"
        },
        {
          "internalType": "address",
          "name": "par2",
          "type": "address"
        },
        {
          "internalType": "uint256",
          "name": "tel1",
          "type": "uint256"
        },
        {
          "internalType": "uint256",
          "name": "tel2",
          "type": "uint256"
        }
      ],
      "payable": false,
      "stateMutability": "view",
      "type": "function"
    },
    {
      "constant": true,
      "inputs": [],
      "name": "name",
      "outputs": [
        {
          "internalType": "string",
          "name": "",
          "type": "string"
        }
      ],
      "payable": false,
      "stateMutability": "view",
      "type": "function"
    },
    {
      "constant": false,
      "inputs": [
        {
          "internalType": "string",
          "name": "content",
          "type": "string"
        },
        {
          "internalType": "string",
          "name": "nickname1",
          "type": "string"
        },
        {
          "internalType": "string",
          "name": "nickname2",
          "type": "string"
        },
        {
          "internalType": "uint256",
          "name": "idCard1",
          "type": "uint256"
        },
        {
          "internalType": "uint256",
          "name": "idCard2",
          "type": "uint256"
        },
        {
          "internalType": "address",
          "name": "par1",
          "type": "address"
        },
        {
          "internalType": "address",
          "name": "par2",
          "type": "address"
        },
        {
          "internalType": "uint256",
          "name": "tel1",
          "type": "uint256"
        },
        {
          "internalType": "uint256",
          "name": "tel2",
          "type": "uint256"
        }
      ],
      "name": "createEcontract",
      "outputs": [],
      "payable": false,
      "stateMutability": "nonpayable",
      "type": "function"
    },
    {
      "constant": false,
      "inputs": [
        {
          "internalType": "uint256",
          "name": "snum",
          "type": "uint256"
        }
      ],
      "name": "sign1",
      "outputs": [],
      "payable": false,
      "stateMutability": "nonpayable",
      "type": "function"
    },
    {
      "constant": false,
      "inputs": [
        {
          "internalType": "uint256",
          "name": "snum",
          "type": "uint256"
        }
      ],
      "name": "sign2",
      "outputs": [],
      "payable": false,
      "stateMutability": "nonpayable",
      "type": "function"
    },
    {
      "constant": false,
      "inputs": [
        {
          "internalType": "uint256",
          "name": "snum",
          "type": "uint256"
        }
      ],
      "name": "confirm1",
      "outputs": [],
      "payable": false,
      "stateMutability": "nonpayable",
      "type": "function"
    },
    {
      "constant": false,
      "inputs": [
        {
          "internalType": "uint256",
          "name": "snum",
          "type": "uint256"
        }
      ],
      "name": "confirm2",
      "outputs": [],
      "payable": false,
      "stateMutability": "nonpayable",
      "type": "function"
    }
  ],
  "bytecode": "0x6080604052600060015534801561001557600080fd5b506040518060400160405280601581526020017f446563656e7472616c697a65642053797374656d730000000000000000000000815250600090805190602001906100619291906100a8565b5033600360006101000a81548173ffffffffffffffffffffffffffffffffffffffff021916908373ffffffffffffffffffffffffffffffffffffffff16021790555061014d565b828054600181600116156101000203166002900490600052602060002090601f016020900481019282601f106100e957805160ff1916838001178555610117565b82800160010185558215610117579182015b828111156101165782518255916020019190600101906100fb565b5b5090506101249190610128565b5090565b61014a91905b8082111561014657600081600090555060010161012e565b5090565b90565b610e718061015c6000396000f3fe608060405234801561001057600080fd5b50600436106100885760003560e01c8063c3b845a61161005b578063c3b845a614610372578063d75e4dd1146103a0578063f468e898146105f2578063f6f58b541461062057610088565b806306fdde031461008d5780630c3cae65146101105780636becaf331461012e5780636dc55aaa14610344575b600080fd5b61009561064e565b6040518080602001828103825283818151815260200191508051906020019080838360005b838110156100d55780820151818401526020810190506100ba565b50505050905090810190601f1680156101025780820380516001836020036101000a031916815260200191505b509250505060405180910390f35b6101186106ec565b6040518082815260200191505060405180910390f35b61015a6004803603602081101561014457600080fd5b81019080803590602001909291905050506106f2565b604051808d81526020018c8152602001806020018b815260200180602001806020018a81526020018981526020018873ffffffffffffffffffffffffffffffffffffffff1673ffffffffffffffffffffffffffffffffffffffff1681526020018773ffffffffffffffffffffffffffffffffffffffff1673ffffffffffffffffffffffffffffffffffffffff16815260200186815260200185815260200184810384528e818151815260200191508051906020019080838360005b83811015610230578082015181840152602081019050610215565b50505050905090810190601f16801561025d5780820380516001836020036101000a031916815260200191505b5084810383528c818151815260200191508051906020019080838360005b8381101561029657808201518184015260208101905061027b565b50505050905090810190601f1680156102c35780820380516001836020036101000a031916815260200191505b5084810382528b818151815260200191508051906020019080838360005b838110156102fc5780820151818401526020810190506102e1565b50505050905090810190601f1680156103295780820380516001836020036101000a031916815260200191505b509f5050505050505050505050505050505060405180910390f35b6103706004803603602081101561035a57600080fd5b810190808035906020019092919050505061095a565b005b61039e6004803603602081101561038857600080fd5b81019080803590602001909291905050506109f0565b005b6105f060048036036101208110156103b757600080fd5b81019080803590602001906401000000008111156103d457600080fd5b8201836020820111156103e657600080fd5b8035906020019184600183028401116401000000008311171561040857600080fd5b91908080601f016020809104026020016040519081016040528093929190818152602001838380828437600081840152601f19601f8201169050808301925050505050505091929192908035906020019064010000000081111561046b57600080fd5b82018360208201111561047d57600080fd5b8035906020019184600183028401116401000000008311171561049f57600080fd5b91908080601f016020809104026020016040519081016040528093929190818152602001838380828437600081840152601f19601f8201169050808301925050505050505091929192908035906020019064010000000081111561050257600080fd5b82018360208201111561051457600080fd5b8035906020019184600183028401116401000000008311171561053657600080fd5b91908080601f016020809104026020016040519081016040528093929190818152602001838380828437600081840152601f19601f8201169050808301925050505050505091929192908035906020019092919080359060200190929190803573ffffffffffffffffffffffffffffffffffffffff169060200190929190803573ffffffffffffffffffffffffffffffffffffffff1690602001909291908035906020019092919080359060200190929190505050610a86565b005b61061e6004803603602081101561060857600080fd5b8101908080359060200190929190505050610c6b565b005b61064c6004803603602081101561063657600080fd5b8101908080359060200190929190505050610d01565b005b60008054600181600116156101000203166002900480601f0160208091040260200160405190810160405280929190818152602001828054600181600116156101000203166002900480156106e45780601f106106b9576101008083540402835291602001916106e4565b820191906000526020600020905b8154815290600101906020018083116106c757829003601f168201915b505050505081565b60015481565b6002602052806000526040600020600091509050806000015490806001015490806002018054600181600116156101000203166002900480601f0160208091040260200160405190810160405280929190818152602001828054600181600116156101000203166002900480156107aa5780601f1061077f576101008083540402835291602001916107aa565b820191906000526020600020905b81548152906001019060200180831161078d57829003601f168201915b505050505090806003015490806004018054600181600116156101000203166002900480601f01602080910402602001604051908101604052809291908181526020018280546001816001161561010002031660029004801561084e5780601f106108235761010080835404028352916020019161084e565b820191906000526020600020905b81548152906001019060200180831161083157829003601f168201915b505050505090806005018054600181600116156101000203166002900480601f0160208091040260200160405190810160405280929190818152602001828054600181600116156101000203166002900480156108ec5780601f106108c1576101008083540402835291602001916108ec565b820191906000526020600020905b8154815290600101906020018083116108cf57829003601f168201915b5050505050908060060154908060070154908060080160009054906101000a900473ffffffffffffffffffffffffffffffffffffffff16908060090160009054906101000a900473ffffffffffffffffffffffffffffffffffffffff169080600a01549080600b015490508c565b3373ffffffffffffffffffffffffffffffffffffffff166002600083815260200190815260200160002060090160009054906101000a900473ffffffffffffffffffffffffffffffffffffffff1673ffffffffffffffffffffffffffffffffffffffff16146109c857600080fd5b6001600260008381526020019081526020016000206003016000828254019250508190555050565b3373ffffffffffffffffffffffffffffffffffffffff166002600083815260200190815260200160002060090160009054906101000a900473ffffffffffffffffffffffffffffffffffffffff1673ffffffffffffffffffffffffffffffffffffffff1614610a5e57600080fd5b6001600260008381526020019081526020016000206003016000828254019250508190555050565b60016000815480929190600101919050555060405180610180016040528060015481526020014281526020018a8152602001600081526020018981526020018881526020018781526020018681526020018573ffffffffffffffffffffffffffffffffffffffff1681526020018473ffffffffffffffffffffffffffffffffffffffff1681526020018381526020018281525060026000600154815260200190815260200160002060008201518160000155602082015181600101556040820151816002019080519060200190610b5e929190610d97565b50606082015181600301556080820151816004019080519060200190610b85929190610d97565b5060a0820151816005019080519060200190610ba2929190610d97565b5060c0820151816006015560e082015181600701556101008201518160080160006101000a81548173ffffffffffffffffffffffffffffffffffffffff021916908373ffffffffffffffffffffffffffffffffffffffff1602179055506101208201518160090160006101000a81548173ffffffffffffffffffffffffffffffffffffffff021916908373ffffffffffffffffffffffffffffffffffffffff16021790555061014082015181600a015561016082015181600b0155905050505050505050505050565b3373ffffffffffffffffffffffffffffffffffffffff166002600083815260200190815260200160002060080160009054906101000a900473ffffffffffffffffffffffffffffffffffffffff1673ffffffffffffffffffffffffffffffffffffffff1614610cd957600080fd5b6001600260008381526020019081526020016000206003016000828254019250508190555050565b3373ffffffffffffffffffffffffffffffffffffffff166002600083815260200190815260200160002060080160009054906101000a900473ffffffffffffffffffffffffffffffffffffffff1673ffffffffffffffffffffffffffffffffffffffff1614610d6f57600080fd5b6001600260008381526020019081526020016000206003016000828254019250508190555050565b828054600181600116156101000203166002900490600052602060002090601f016020900481019282601f10610dd857805160ff1916838001178555610e06565b82800160010185558215610e06579182015b82811115610e05578251825591602001919060010190610dea565b5b509050610e139190610e17565b5090565b610e3991905b80821115610e35576000816000905550600101610e1d565b5090565b9056fea265627a7a72315820b0bbccae72f6fe5db322f5eaaa4e853894e78a4a97019f008a716167e82a3c9564736f6c63430005100032",
  "source": "pragma solidity ^0.5.0;\n\ncontract EContract{\n    string public name;\n    uint public e_contractCount = 0;\n    mapping (uint => EContract) public e_contracts;//合同索引\n\n    struct EContract {\n         uint id;//合同编号\n         uint createTime;//发布时间，用当前时间表示\n         string content;//内容\n         uint state;//合同状态。0：新创建   2：待确认-双方签字后  4：已签署-签字后-双方确认\n         string nickname1;//签署姓名1\n         string nickname2;//签署姓名2     \n         uint idCard1;//身份证信息1\n         uint idCard2;//身份证信息1\n         address  par1;//签署地址1\n         address  par2;//签署地址2\n         uint tel1;//联系方式1\n         uint tel2;//联系方式2\n    }\n\n    //管理员地址\n   address owner;\n\n   //构造函数\n    constructor () public {\n        name = \"Decentralized Systems\";\n        owner=msg.sender;\n    }\n\n    //创建合同\n    function createEcontract (string memory content,string memory nickname1,string memory nickname2,uint idCard1,uint idCard2,address par1,address par2,uint tel1,uint tel2) public {\n       // 自增 合同序列从1开始\n        e_contractCount ++;\n        //address  _author=msg.sender;\n        e_contracts[e_contractCount] = EContract(e_contractCount,now,content,0,nickname1,nickname2,idCard1,idCard2,par1,par2,tel1,tel2);\n         \n    }\n\n\n    //地址1签署合同\n    function sign1 (uint snum) public {\n        require(e_contracts[snum].par1 == msg.sender);\n        e_contracts[snum].state += 1;\n    }\n\n\n    //地址2签署合同\n    function sign2 (uint snum) public {\n         require(e_contracts[snum].par2 == msg.sender);\n         e_contracts[snum].state += 1;\n    }\n\n    //地址1确认合同\n    function confirm1 (uint snum) public {\n        require(e_contracts[snum].par1 == msg.sender);\n        e_contracts[snum].state += 1;\n\n          \n    }\n\n    //地址2确认合同\n    function confirm2 (uint snum) public {\n         require(e_contracts[snum].par2 == msg.sender);\n         e_contracts[snum].state += 1;\n    }\n} ",
  "sourcePath": "D:\\基于truffle的电子合同签署平台\\contracts\\EContract.sol",
  "compiler": {
    "name": "solc",
    "version": "0.5.16+commit.9c3226ce.Emscripten.clang"
  },
  "schemaVersion": "3.1.0",
  "updatedAt": "2020-05-25T17:02:37.035Z",
  "devdoc": {
    "methods": {}
  },
  "userdoc": {
    "methods": {}
  }
}