{
  "contractName": "EContract",
  "abi": [
    {
      "inputs": [],
      "payable": false,
      "stateMutability": "nonpayable",
      "type": "constructor"
    },
    {
      "constant": true,
      "inputs": [],
      "name": "admin",
      "outputs": [
        {
          "internalType": "address",
          "name": "",
          "type": "address"
        }
      ],
      "payable": false,
      "stateMutability": "view",
      "type": "function"
    },
    {
      "constant": true,
      "inputs": [],
      "name": "e_contractCount",
      "outputs": [
        {
          "internalType": "uint256",
          "name": "",
          "type": "uint256"
        }
      ],
      "payable": false,
      "stateMutability": "view",
      "type": "function"
    },
    {
      "constant": true,
      "inputs": [
        {
          "internalType": "uint256",
          "name": "",
          "type": "uint256"
        }
      ],
      "name": "e_contracts",
      "outputs": [
        {
          "internalType": "uint256",
          "name": "id",
          "type": "uint256"
        },
        {
          "internalType": "uint256",
          "name": "createTime",
          "type": "uint256"
        },
        {
          "internalType": "string",
          "name": "content",
          "type": "string"
        },
        {
          "internalType": "uint256",
          "name": "state1",
          "type": "uint256"
        },
        {
          "internalType": "uint256",
          "name": "state2",
          "type": "uint256"
        },
        {
          "internalType": "string",
          "name": "nickname1",
          "type": "string"
        },
        {
          "internalType": "string",
          "name": "nickname2",
          "type": "string"
        },
        {
          "internalType": "uint256",
          "name": "idCard1",
          "type": "uint256"
        },
        {
          "internalType": "uint256",
          "name": "idCard2",
          "type": "uint256"
        },
        {
          "internalType": "address",
          "name": "par1",
          "type": "address"
        },
        {
          "internalType": "address",
          "name": "par2",
          "type": "address"
        }
      ],
      "payable": false,
      "stateMutability": "view",
      "type": "function"
    },
    {
      "constant": false,
      "inputs": [
        {
          "internalType": "string",
          "name": "content",
          "type": "string"
        },
        {
          "internalType": "string",
          "name": "nickname1",
          "type": "string"
        },
        {
          "internalType": "string",
          "name": "nickname2",
          "type": "string"
        },
        {
          "internalType": "uint256",
          "name": "idCard1",
          "type": "uint256"
        },
        {
          "internalType": "uint256",
          "name": "idCard2",
          "type": "uint256"
        },
        {
          "internalType": "address",
          "name": "par1",
          "type": "address"
        },
        {
          "internalType": "address",
          "name": "par2",
          "type": "address"
        }
      ],
      "name": "createEcontract",
      "outputs": [],
      "payable": false,
      "stateMutability": "nonpayable",
      "type": "function"
    },
    {
      "constant": false,
      "inputs": [
        {
          "internalType": "uint256",
          "name": "num",
          "type": "uint256"
        }
      ],
      "name": "sign1",
      "outputs": [],
      "payable": false,
      "stateMutability": "nonpayable",
      "type": "function"
    },
    {
      "constant": false,
      "inputs": [
        {
          "internalType": "uint256",
          "name": "num",
          "type": "uint256"
        }
      ],
      "name": "sign2",
      "outputs": [],
      "payable": false,
      "stateMutability": "nonpayable",
      "type": "function"
    },
    {
      "constant": false,
      "inputs": [
        {
          "internalType": "uint256",
          "name": "num",
          "type": "uint256"
        }
      ],
      "name": "confirm1",
      "outputs": [],
      "payable": false,
      "stateMutability": "nonpayable",
      "type": "function"
    },
    {
      "constant": false,
      "inputs": [
        {
          "internalType": "uint256",
          "name": "num",
          "type": "uint256"
        }
      ],
      "name": "confirm2",
      "outputs": [],
      "payable": false,
      "stateMutability": "nonpayable",
      "type": "function"
    },
    {
      "constant": false,
      "inputs": [
        {
          "internalType": "uint256",
          "name": "num",
          "type": "uint256"
        }
      ],
      "name": "pass",
      "outputs": [],
      "payable": false,
      "stateMutability": "nonpayable",
      "type": "function"
    },
    {
      "constant": false,
      "inputs": [
        {
          "internalType": "uint256",
          "name": "num",
          "type": "uint256"
        }
      ],
      "name": "reject",
      "outputs": [],
      "payable": false,
      "stateMutability": "nonpayable",
      "type": "function"
    }
  ],
  "bytecode": "0x60806040526000805534801561001457600080fd5b5033600160006101000a81548173ffffffffffffffffffffffffffffffffffffffff021916908373ffffffffffffffffffffffffffffffffffffffff160217905550610ff2806100656000396000f3fe608060405234801561001057600080fd5b506004361061009e5760003560e01c8063d67c996111610066578063d67c99611461035a578063ea2a352214610388578063f468e898146105c5578063f6f58b54146105f3578063f851a440146106215761009e565b80630c3cae65146100a35780636becaf33146100c15780636dc55aaa146102d0578063b8adaa11146102fe578063c3b845a61461032c575b600080fd5b6100ab61066b565b6040518082815260200191505060405180910390f35b6100ed600480360360208110156100d757600080fd5b8101908080359060200190929190505050610671565b604051808c81526020018b8152602001806020018a815260200189815260200180602001806020018881526020018781526020018673ffffffffffffffffffffffffffffffffffffffff1673ffffffffffffffffffffffffffffffffffffffff1681526020018573ffffffffffffffffffffffffffffffffffffffff1673ffffffffffffffffffffffffffffffffffffffff16815260200184810384528d818151815260200191508051906020019080838360005b838110156101bd5780820151818401526020810190506101a2565b50505050905090810190601f1680156101ea5780820380516001836020036101000a031916815260200191505b5084810383528a818151815260200191508051906020019080838360005b83811015610223578082015181840152602081019050610208565b50505050905090810190601f1680156102505780820380516001836020036101000a031916815260200191505b50848103825289818151815260200191508051906020019080838360005b8381101561028957808201518184015260208101905061026e565b50505050905090810190601f1680156102b65780820380516001836020036101000a031916815260200191505b509e50505050505050505050505050505060405180910390f35b6102fc600480360360208110156102e657600080fd5b81019080803590602001909291905050506108d3565b005b61032a6004803603602081101561031457600080fd5b810190808035906020019092919050505061098b565b005b6103586004803603602081101561034257600080fd5b8101908080359060200190929190505050610a20565b005b6103866004803603602081101561037057600080fd5b8101908080359060200190929190505050610afa565b005b6105c3600480360360e081101561039e57600080fd5b81019080803590602001906401000000008111156103bb57600080fd5b8201836020820111156103cd57600080fd5b803590602001918460018302840111640100000000831117156103ef57600080fd5b91908080601f016020809104026020016040519081016040528093929190818152602001838380828437600081840152601f19601f8201169050808301925050505050505091929192908035906020019064010000000081111561045257600080fd5b82018360208201111561046457600080fd5b8035906020019184600183028401116401000000008311171561048657600080fd5b91908080601f016020809104026020016040519081016040528093929190818152602001838380828437600081840152601f19601f820116905080830192505050505050509192919290803590602001906401000000008111156104e957600080fd5b8201836020820111156104fb57600080fd5b8035906020019184600183028401116401000000008311171561051d57600080fd5b91908080601f016020809104026020016040519081016040528093929190818152602001838380828437600081840152601f19601f8201169050808301925050505050505091929192908035906020019092919080359060200190929190803573ffffffffffffffffffffffffffffffffffffffff169060200190929190803573ffffffffffffffffffffffffffffffffffffffff169060200190929190505050610b8f565b005b6105f1600480360360208110156105db57600080fd5b8101908080359060200190929190505050610d60565b005b61061f6004803603602081101561060957600080fd5b8101908080359060200190929190505050610e18565b005b610629610ef2565b604051808273ffffffffffffffffffffffffffffffffffffffff1673ffffffffffffffffffffffffffffffffffffffff16815260200191505060405180910390f35b60005481565b6002602052806000526040600020600091509050806000015490806001015490806002018054600181600116156101000203166002900480601f0160208091040260200160405190810160405280929190818152602001828054600181600116156101000203166002900480156107295780601f106106fe57610100808354040283529160200191610729565b820191906000526020600020905b81548152906001019060200180831161070c57829003601f168201915b505050505090806003015490806004015490806005018054600181600116156101000203166002900480601f0160208091040260200160405190810160405280929190818152602001828054600181600116156101000203166002900480156107d35780601f106107a8576101008083540402835291602001916107d3565b820191906000526020600020905b8154815290600101906020018083116107b657829003601f168201915b505050505090806006018054600181600116156101000203166002900480601f0160208091040260200160405190810160405280929190818152602001828054600181600116156101000203166002900480156108715780601f1061084657610100808354040283529160200191610871565b820191906000526020600020905b81548152906001019060200180831161085457829003601f168201915b5050505050908060070154908060080154908060090160009054906101000a900473ffffffffffffffffffffffffffffffffffffffff169080600a0160009054906101000a900473ffffffffffffffffffffffffffffffffffffffff1690508b565b3373ffffffffffffffffffffffffffffffffffffffff1660026000838152602001908152602001600020600a0160009054906101000a900473ffffffffffffffffffffffffffffffffffffffff1673ffffffffffffffffffffffffffffffffffffffff1614801561095a575060006002600083815260200190815260200160002060040154145b61096357600080fd5b6001600260008381526020019081526020016000206004016000828254019250508190555050565b3373ffffffffffffffffffffffffffffffffffffffff16600160009054906101000a900473ffffffffffffffffffffffffffffffffffffffff1673ffffffffffffffffffffffffffffffffffffffff16146109e557600080fd5b600460026000838152602001908152602001600020600301819055506004600260008381526020019081526020016000206004018190555050565b3373ffffffffffffffffffffffffffffffffffffffff1660026000838152602001908152602001600020600a0160009054906101000a900473ffffffffffffffffffffffffffffffffffffffff1673ffffffffffffffffffffffffffffffffffffffff16148015610ac9575060016002600083815260200190815260200160002060040154148015610ac8575060006002600083815260200190815260200160002060030154115b5b610ad257600080fd5b6001600260008381526020019081526020016000206004016000828254019250508190555050565b3373ffffffffffffffffffffffffffffffffffffffff16600160009054906101000a900473ffffffffffffffffffffffffffffffffffffffff1673ffffffffffffffffffffffffffffffffffffffff1614610b5457600080fd5b600360026000838152602001908152602001600020600301819055506003600260008381526020019081526020016000206004018190555050565b6000808154809291906001019190505550604051806101600160405280600054815260200142815260200188815260200160008152602001600081526020018781526020018681526020018581526020018481526020018373ffffffffffffffffffffffffffffffffffffffff1681526020018273ffffffffffffffffffffffffffffffffffffffff16815250600260008054815260200190815260200160002060008201518160000155602082015181600101556040820151816002019080519060200190610c60929190610f18565b50606082015181600301556080820151816004015560a0820151816005019080519060200190610c91929190610f18565b5060c0820151816006019080519060200190610cae929190610f18565b5060e0820151816007015561010082015181600801556101208201518160090160006101000a81548173ffffffffffffffffffffffffffffffffffffffff021916908373ffffffffffffffffffffffffffffffffffffffff16021790555061014082015181600a0160006101000a81548173ffffffffffffffffffffffffffffffffffffffff021916908373ffffffffffffffffffffffffffffffffffffffff16021790555090505050505050505050565b3373ffffffffffffffffffffffffffffffffffffffff166002600083815260200190815260200160002060090160009054906101000a900473ffffffffffffffffffffffffffffffffffffffff1673ffffffffffffffffffffffffffffffffffffffff16148015610de7575060006002600083815260200190815260200160002060030154145b610df057600080fd5b6001600260008381526020019081526020016000206003016000828254019250508190555050565b3373ffffffffffffffffffffffffffffffffffffffff166002600083815260200190815260200160002060090160009054906101000a900473ffffffffffffffffffffffffffffffffffffffff1673ffffffffffffffffffffffffffffffffffffffff16148015610ec1575060016002600083815260200190815260200160002060030154148015610ec0575060006002600083815260200190815260200160002060040154115b5b610eca57600080fd5b6001600260008381526020019081526020016000206003016000828254019250508190555050565b600160009054906101000a900473ffffffffffffffffffffffffffffffffffffffff1681565b828054600181600116156101000203166002900490600052602060002090601f016020900481019282601f10610f5957805160ff1916838001178555610f87565b82800160010185558215610f87579182015b82811115610f86578251825591602001919060010190610f6b565b5b509050610f949190610f98565b5090565b610fba91905b80821115610fb6576000816000905550600101610f9e565b5090565b9056fea265627a7a7231582076f5133cc8d5a5862069c957512aae15fd4c77a682ea8dd41ac05923880bbc5c64736f6c63430005100032",
  "source": "pragma solidity ^0.5.0;\n\ncontract EContract{\n    uint public e_contractCount = 0;\n    address public admin;\n\n    struct econ {\n         uint id;//合同编号\n         uint createTime;//发布时间，用当前时间表示\n         string content;//内容\n         uint state1; //state1：par1状态 0为未签署 1为未确认\n         uint state2; //state2: par2状态 0未签署 1未确认\n         string nickname1;//签署姓名1\n         string nickname2;//签署姓名2     \n         uint idCard1;//身份证信息1\n         uint idCard2;//身份证信息1\n         address  par1;//签署地址1\n         address  par2;//签署地址2\n    }\n    mapping (uint => econ) public e_contracts;//合同索引\n\n   //构造函数\n    constructor () public {\n        admin=msg.sender;\n    }\n\n    //创建合同\n    function createEcontract (string memory content,string memory nickname1,string memory nickname2,uint idCard1,uint idCard2,address par1,address par2) public {\n        e_contractCount ++;\n        e_contracts[e_contractCount] = econ(e_contractCount,now,content,0,0,nickname1,nickname2,idCard1,idCard2,par1,par2);\n    }\n\n\n    //甲签署合同\n    function sign1 (uint num) public {\n        require(e_contracts[num].par1 == msg.sender && e_contracts[num].state1==0);\n        e_contracts[num].state1 += 1;\n    }\n\n\n    //乙签署合同\n    function sign2 (uint num) public {\n         require(e_contracts[num].par2 == msg.sender && e_contracts[num].state2==0);\n         e_contracts[num].state2 += 1;\n    }\n\n    //甲方确认合同\n    function confirm1 (uint num) public {\n        require(e_contracts[num].par1 == msg.sender\n        && (e_contracts[num].state1==1&&(e_contracts[num].state2>0)));\n        e_contracts[num].state1 += 1;\n    }\n\n    //乙方确认合同\n    function confirm2 (uint num) public {\n         require(e_contracts[num].par2 == msg.sender\n         && (e_contracts[num].state2==1&&(e_contracts[num].state1>0)));\n         e_contracts[num].state2 += 1;\n    }\n\n    //管理员批准合同\n    function pass(uint num) public {\n        require(admin==msg.sender);\n        e_contracts[num].state1=3;\n        e_contracts[num].state2=3;\n    }\n\n    //管理员未批准=>已中止\n     function reject(uint num) public {\n            require(admin==msg.sender);\n            e_contracts[num].state1=4;\n            e_contracts[num].state2=4;\n        }\n} ",
  "sourcePath": "D:\\基于truffle的电子合同签署平台\\contracts\\EContract.sol",
  "compiler": {
    "name": "solc",
    "version": "0.5.16+commit.9c3226ce.Emscripten.clang"
  },
  "schemaVersion": "3.1.0",
  "updatedAt": "2020-06-11T08:28:52.892Z",
  "devdoc": {
    "methods": {}
  },
  "userdoc": {
    "methods": {}
  }
}