{
  "contractName": "EContract",
  "abi": [
    {
      "inputs": [],
      "payable": false,
      "stateMutability": "nonpayable",
      "type": "constructor"
    },
    {
      "constant": true,
      "inputs": [],
      "name": "e_contractCount",
      "outputs": [
        {
          "internalType": "uint256",
          "name": "",
          "type": "uint256"
        }
      ],
      "payable": false,
      "stateMutability": "view",
      "type": "function"
    },
    {
      "constant": true,
      "inputs": [
        {
          "internalType": "uint256",
          "name": "",
          "type": "uint256"
        }
      ],
      "name": "e_contracts",
      "outputs": [
        {
          "internalType": "uint256",
          "name": "id",
          "type": "uint256"
        },
        {
          "internalType": "uint256",
          "name": "createTime",
          "type": "uint256"
        },
        {
          "internalType": "string",
          "name": "content",
          "type": "string"
        },
        {
          "internalType": "uint256",
          "name": "state1",
          "type": "uint256"
        },
        {
          "internalType": "uint256",
          "name": "state2",
          "type": "uint256"
        },
        {
          "internalType": "string",
          "name": "nickname1",
          "type": "string"
        },
        {
          "internalType": "string",
          "name": "nickname2",
          "type": "string"
        },
        {
          "internalType": "uint256",
          "name": "idCard1",
          "type": "uint256"
        },
        {
          "internalType": "uint256",
          "name": "idCard2",
          "type": "uint256"
        },
        {
          "internalType": "address",
          "name": "par1",
          "type": "address"
        },
        {
          "internalType": "address",
          "name": "par2",
          "type": "address"
        }
      ],
      "payable": false,
      "stateMutability": "view",
      "type": "function"
    },
    {
      "constant": true,
      "inputs": [],
      "name": "name",
      "outputs": [
        {
          "internalType": "string",
          "name": "",
          "type": "string"
        }
      ],
      "payable": false,
      "stateMutability": "view",
      "type": "function"
    },
    {
      "constant": false,
      "inputs": [
        {
          "internalType": "string",
          "name": "content",
          "type": "string"
        },
        {
          "internalType": "string",
          "name": "nickname1",
          "type": "string"
        },
        {
          "internalType": "string",
          "name": "nickname2",
          "type": "string"
        },
        {
          "internalType": "uint256",
          "name": "idCard1",
          "type": "uint256"
        },
        {
          "internalType": "uint256",
          "name": "idCard2",
          "type": "uint256"
        },
        {
          "internalType": "address",
          "name": "par1",
          "type": "address"
        },
        {
          "internalType": "address",
          "name": "par2",
          "type": "address"
        }
      ],
      "name": "createEcontract",
      "outputs": [],
      "payable": false,
      "stateMutability": "nonpayable",
      "type": "function"
    },
    {
      "constant": false,
      "inputs": [
        {
          "internalType": "uint256",
          "name": "snum",
          "type": "uint256"
        }
      ],
      "name": "sign1",
      "outputs": [],
      "payable": false,
      "stateMutability": "nonpayable",
      "type": "function"
    },
    {
      "constant": false,
      "inputs": [
        {
          "internalType": "uint256",
          "name": "snum",
          "type": "uint256"
        }
      ],
      "name": "sign2",
      "outputs": [],
      "payable": false,
      "stateMutability": "nonpayable",
      "type": "function"
    },
    {
      "constant": false,
      "inputs": [
        {
          "internalType": "uint256",
          "name": "snum",
          "type": "uint256"
        }
      ],
      "name": "confirm1",
      "outputs": [],
      "payable": false,
      "stateMutability": "nonpayable",
      "type": "function"
    },
    {
      "constant": false,
      "inputs": [
        {
          "internalType": "uint256",
          "name": "snum",
          "type": "uint256"
        }
      ],
      "name": "confirm2",
      "outputs": [],
      "payable": false,
      "stateMutability": "nonpayable",
      "type": "function"
    }
  ],
  "bytecode": "0x6080604052600060015534801561001557600080fd5b506040518060400160405280601581526020017f446563656e7472616c697a65642053797374656d730000000000000000000000815250600090805190602001906100619291906100a8565b5033600360006101000a81548173ffffffffffffffffffffffffffffffffffffffff021916908373ffffffffffffffffffffffffffffffffffffffff16021790555061014d565b828054600181600116156101000203166002900490600052602060002090601f016020900481019282601f106100e957805160ff1916838001178555610117565b82800160010185558215610117579182015b828111156101165782518255916020019190600101906100fb565b5b5090506101249190610128565b5090565b61014a91905b8082111561014657600081600090555060010161012e565b5090565b90565b610f098061015c6000396000f3fe608060405234801561001057600080fd5b50600436106100885760003560e01c8063c3b845a61161005b578063c3b845a61461036b578063ea2a352214610399578063f468e898146105d6578063f6f58b541461060457610088565b806306fdde031461008d5780630c3cae65146101105780636becaf331461012e5780636dc55aaa1461033d575b600080fd5b610095610632565b6040518080602001828103825283818151815260200191508051906020019080838360005b838110156100d55780820151818401526020810190506100ba565b50505050905090810190601f1680156101025780820380516001836020036101000a031916815260200191505b509250505060405180910390f35b6101186106d0565b6040518082815260200191505060405180910390f35b61015a6004803603602081101561014457600080fd5b81019080803590602001909291905050506106d6565b604051808c81526020018b8152602001806020018a815260200189815260200180602001806020018881526020018781526020018673ffffffffffffffffffffffffffffffffffffffff1673ffffffffffffffffffffffffffffffffffffffff1681526020018573ffffffffffffffffffffffffffffffffffffffff1673ffffffffffffffffffffffffffffffffffffffff16815260200184810384528d818151815260200191508051906020019080838360005b8381101561022a57808201518184015260208101905061020f565b50505050905090810190601f1680156102575780820380516001836020036101000a031916815260200191505b5084810383528a818151815260200191508051906020019080838360005b83811015610290578082015181840152602081019050610275565b50505050905090810190601f1680156102bd5780820380516001836020036101000a031916815260200191505b50848103825289818151815260200191508051906020019080838360005b838110156102f65780820151818401526020810190506102db565b50505050905090810190601f1680156103235780820380516001836020036101000a031916815260200191505b509e50505050505050505050505050505060405180910390f35b6103696004803603602081101561035357600080fd5b8101908080359060200190929190505050610938565b005b6103976004803603602081101561038157600080fd5b81019080803590602001909291905050506109f0565b005b6105d4600480360360e08110156103af57600080fd5b81019080803590602001906401000000008111156103cc57600080fd5b8201836020820111156103de57600080fd5b8035906020019184600183028401116401000000008311171561040057600080fd5b91908080601f016020809104026020016040519081016040528093929190818152602001838380828437600081840152601f19601f8201169050808301925050505050505091929192908035906020019064010000000081111561046357600080fd5b82018360208201111561047557600080fd5b8035906020019184600183028401116401000000008311171561049757600080fd5b91908080601f016020809104026020016040519081016040528093929190818152602001838380828437600081840152601f19601f820116905080830192505050505050509192919290803590602001906401000000008111156104fa57600080fd5b82018360208201111561050c57600080fd5b8035906020019184600183028401116401000000008311171561052e57600080fd5b91908080601f016020809104026020016040519081016040528093929190818152602001838380828437600081840152601f19601f8201169050808301925050505050505091929192908035906020019092919080359060200190929190803573ffffffffffffffffffffffffffffffffffffffff169060200190929190803573ffffffffffffffffffffffffffffffffffffffff169060200190929190505050610aca565b005b610602600480360360208110156105ec57600080fd5b8101908080359060200190929190505050610c9d565b005b6106306004803603602081101561061a57600080fd5b8101908080359060200190929190505050610d55565b005b60008054600181600116156101000203166002900480601f0160208091040260200160405190810160405280929190818152602001828054600181600116156101000203166002900480156106c85780601f1061069d576101008083540402835291602001916106c8565b820191906000526020600020905b8154815290600101906020018083116106ab57829003601f168201915b505050505081565b60015481565b6002602052806000526040600020600091509050806000015490806001015490806002018054600181600116156101000203166002900480601f01602080910402602001604051908101604052809291908181526020018280546001816001161561010002031660029004801561078e5780601f106107635761010080835404028352916020019161078e565b820191906000526020600020905b81548152906001019060200180831161077157829003601f168201915b505050505090806003015490806004015490806005018054600181600116156101000203166002900480601f0160208091040260200160405190810160405280929190818152602001828054600181600116156101000203166002900480156108385780601f1061080d57610100808354040283529160200191610838565b820191906000526020600020905b81548152906001019060200180831161081b57829003601f168201915b505050505090806006018054600181600116156101000203166002900480601f0160208091040260200160405190810160405280929190818152602001828054600181600116156101000203166002900480156108d65780601f106108ab576101008083540402835291602001916108d6565b820191906000526020600020905b8154815290600101906020018083116108b957829003601f168201915b5050505050908060070154908060080154908060090160009054906101000a900473ffffffffffffffffffffffffffffffffffffffff169080600a0160009054906101000a900473ffffffffffffffffffffffffffffffffffffffff1690508b565b3373ffffffffffffffffffffffffffffffffffffffff1660026000838152602001908152602001600020600a0160009054906101000a900473ffffffffffffffffffffffffffffffffffffffff1673ffffffffffffffffffffffffffffffffffffffff161480156109bf575060006002600083815260200190815260200160002060040154145b6109c857600080fd5b6001600260008381526020019081526020016000206004016000828254019250508190555050565b3373ffffffffffffffffffffffffffffffffffffffff1660026000838152602001908152602001600020600a0160009054906101000a900473ffffffffffffffffffffffffffffffffffffffff1673ffffffffffffffffffffffffffffffffffffffff16148015610a99575060016002600083815260200190815260200160002060040154148015610a98575060006002600083815260200190815260200160002060030154115b5b610aa257600080fd5b6001600260008381526020019081526020016000206004016000828254019250508190555050565b600160008154809291906001019190505550604051806101600160405280600154815260200142815260200188815260200160008152602001600081526020018781526020018681526020018581526020018481526020018373ffffffffffffffffffffffffffffffffffffffff1681526020018273ffffffffffffffffffffffffffffffffffffffff1681525060026000600154815260200190815260200160002060008201518160000155602082015181600101556040820151816002019080519060200190610b9d929190610e2f565b50606082015181600301556080820151816004015560a0820151816005019080519060200190610bce929190610e2f565b5060c0820151816006019080519060200190610beb929190610e2f565b5060e0820151816007015561010082015181600801556101208201518160090160006101000a81548173ffffffffffffffffffffffffffffffffffffffff021916908373ffffffffffffffffffffffffffffffffffffffff16021790555061014082015181600a0160006101000a81548173ffffffffffffffffffffffffffffffffffffffff021916908373ffffffffffffffffffffffffffffffffffffffff16021790555090505050505050505050565b3373ffffffffffffffffffffffffffffffffffffffff166002600083815260200190815260200160002060090160009054906101000a900473ffffffffffffffffffffffffffffffffffffffff1673ffffffffffffffffffffffffffffffffffffffff16148015610d24575060006002600083815260200190815260200160002060030154145b610d2d57600080fd5b6001600260008381526020019081526020016000206003016000828254019250508190555050565b3373ffffffffffffffffffffffffffffffffffffffff166002600083815260200190815260200160002060090160009054906101000a900473ffffffffffffffffffffffffffffffffffffffff1673ffffffffffffffffffffffffffffffffffffffff16148015610dfe575060016002600083815260200190815260200160002060030154148015610dfd575060006002600083815260200190815260200160002060040154115b5b610e0757600080fd5b6001600260008381526020019081526020016000206003016000828254019250508190555050565b828054600181600116156101000203166002900490600052602060002090601f016020900481019282601f10610e7057805160ff1916838001178555610e9e565b82800160010185558215610e9e579182015b82811115610e9d578251825591602001919060010190610e82565b5b509050610eab9190610eaf565b5090565b610ed191905b80821115610ecd576000816000905550600101610eb5565b5090565b9056fea265627a7a723158206998c92ee317a46057eb9c0e688f04770cadec32b67eaff563c0b82a5026cc5964736f6c63430005100032",
  "source": "pragma solidity ^0.5.0;\n\ncontract EContract{\n    string public name;\n    uint public e_contractCount = 0;\n    mapping (uint => econ) public e_contracts;//合同索引\n\n    struct econ {\n         uint id;//合同编号\n         uint createTime;//发布时间，用当前时间表示\n         string content;//内容\n         uint state1; //state1：par1状态 0为未签署 1为未确认\n         uint state2; //state2: par2状态 0未签署 1未确认\n         string nickname1;//签署姓名1\n         string nickname2;//签署姓名2     \n         uint idCard1;//身份证信息1\n         uint idCard2;//身份证信息1\n         address  par1;//签署地址1\n         address  par2;//签署地址2\n    }\n\n    //管理员地址\n   address owner;\n\n   //构造函数\n    constructor () public {\n        name = \"Decentralized Systems\";\n        owner=msg.sender;\n    }\n\n    //创建合同\n    function createEcontract (string memory content,string memory nickname1,string memory nickname2,uint idCard1,uint idCard2,address par1,address par2) public {\n       // 自增 合同序列从1开始\n        e_contractCount ++;\n        //address  _author=msg.sender;\n        e_contracts[e_contractCount] = econ(e_contractCount,now,content,0,0,nickname1,nickname2,idCard1,idCard2,par1,par2);\n         \n    }\n\n\n    //地址1签署合同\n    function sign1 (uint snum) public {\n        require(e_contracts[snum].par1 == msg.sender && e_contracts[snum].state1==0);\n        e_contracts[snum].state1 += 1;\n    }\n\n\n    //地址2签署合同\n    function sign2 (uint snum) public {\n         require(e_contracts[snum].par2 == msg.sender && e_contracts[snum].state2==0);\n         e_contracts[snum].state2 += 1;\n    }\n\n    //地址1确认合同\n    function confirm1 (uint snum) public {\n        require(e_contracts[snum].par1 == msg.sender\n        && (e_contracts[snum].state1==1&&(e_contracts[snum].state2>0)));\n        e_contracts[snum].state1 += 1;\n    }\n\n    //地址2确认合同\n    function confirm2 (uint snum) public {\n         require(e_contracts[snum].par2 == msg.sender\n         && (e_contracts[snum].state2==1&&(e_contracts[snum].state1>0)));\n         e_contracts[snum].state2 += 1;\n    }\n} ",
  "sourcePath": "D:\\基于truffle的电子合同签署平台\\contracts\\EContract.sol",
  "compiler": {
    "name": "solc",
    "version": "0.5.16+commit.9c3226ce.Emscripten.clang"
  },
  "schemaVersion": "3.1.0",
  "updatedAt": "2020-05-29T14:17:06.872Z",
  "networkType": "ethereum",
  "devdoc": {
    "methods": {}
  },
  "userdoc": {
    "methods": {}
  }
}