{
  "contractName": "EContract",
  "abi": [
    {
      "inputs": [],
      "payable": false,
      "stateMutability": "nonpayable",
      "type": "constructor"
    },
    {
      "constant": true,
      "inputs": [],
      "name": "admin",
      "outputs": [
        {
          "internalType": "address",
          "name": "",
          "type": "address"
        }
      ],
      "payable": false,
      "stateMutability": "view",
      "type": "function"
    },
    {
      "constant": true,
      "inputs": [],
      "name": "e_contractCount",
      "outputs": [
        {
          "internalType": "uint256",
          "name": "",
          "type": "uint256"
        }
      ],
      "payable": false,
      "stateMutability": "view",
      "type": "function"
    },
    {
      "constant": true,
      "inputs": [
        {
          "internalType": "uint256",
          "name": "",
          "type": "uint256"
        }
      ],
      "name": "e_contracts",
      "outputs": [
        {
          "internalType": "uint256",
          "name": "id",
          "type": "uint256"
        },
        {
          "internalType": "uint256",
          "name": "createTime",
          "type": "uint256"
        },
        {
          "internalType": "string",
          "name": "content",
          "type": "string"
        },
        {
          "internalType": "uint256",
          "name": "state1",
          "type": "uint256"
        },
        {
          "internalType": "uint256",
          "name": "state2",
          "type": "uint256"
        },
        {
          "internalType": "string",
          "name": "nickname1",
          "type": "string"
        },
        {
          "internalType": "string",
          "name": "nickname2",
          "type": "string"
        },
        {
          "internalType": "uint256",
          "name": "idCard1",
          "type": "uint256"
        },
        {
          "internalType": "uint256",
          "name": "idCard2",
          "type": "uint256"
        },
        {
          "internalType": "address",
          "name": "par1",
          "type": "address"
        },
        {
          "internalType": "address",
          "name": "par2",
          "type": "address"
        }
      ],
      "payable": false,
      "stateMutability": "view",
      "type": "function"
    },
    {
      "constant": true,
      "inputs": [],
      "name": "name",
      "outputs": [
        {
          "internalType": "string",
          "name": "",
          "type": "string"
        }
      ],
      "payable": false,
      "stateMutability": "view",
      "type": "function"
    },
    {
      "constant": false,
      "inputs": [
        {
          "internalType": "string",
          "name": "content",
          "type": "string"
        },
        {
          "internalType": "string",
          "name": "nickname1",
          "type": "string"
        },
        {
          "internalType": "string",
          "name": "nickname2",
          "type": "string"
        },
        {
          "internalType": "uint256",
          "name": "idCard1",
          "type": "uint256"
        },
        {
          "internalType": "uint256",
          "name": "idCard2",
          "type": "uint256"
        },
        {
          "internalType": "address",
          "name": "par1",
          "type": "address"
        },
        {
          "internalType": "address",
          "name": "par2",
          "type": "address"
        }
      ],
      "name": "createEcontract",
      "outputs": [],
      "payable": false,
      "stateMutability": "nonpayable",
      "type": "function"
    },
    {
      "constant": false,
      "inputs": [
        {
          "internalType": "uint256",
          "name": "num",
          "type": "uint256"
        }
      ],
      "name": "sign1",
      "outputs": [],
      "payable": false,
      "stateMutability": "nonpayable",
      "type": "function"
    },
    {
      "constant": false,
      "inputs": [
        {
          "internalType": "uint256",
          "name": "num",
          "type": "uint256"
        }
      ],
      "name": "sign2",
      "outputs": [],
      "payable": false,
      "stateMutability": "nonpayable",
      "type": "function"
    },
    {
      "constant": false,
      "inputs": [
        {
          "internalType": "uint256",
          "name": "num",
          "type": "uint256"
        }
      ],
      "name": "confirm1",
      "outputs": [],
      "payable": false,
      "stateMutability": "nonpayable",
      "type": "function"
    },
    {
      "constant": false,
      "inputs": [
        {
          "internalType": "uint256",
          "name": "num",
          "type": "uint256"
        }
      ],
      "name": "confirm2",
      "outputs": [],
      "payable": false,
      "stateMutability": "nonpayable",
      "type": "function"
    },
    {
      "constant": false,
      "inputs": [
        {
          "internalType": "uint256",
          "name": "num",
          "type": "uint256"
        }
      ],
      "name": "pass",
      "outputs": [],
      "payable": false,
      "stateMutability": "nonpayable",
      "type": "function"
    },
    {
      "constant": false,
      "inputs": [
        {
          "internalType": "uint256",
          "name": "num",
          "type": "uint256"
        }
      ],
      "name": "reject",
      "outputs": [],
      "payable": false,
      "stateMutability": "nonpayable",
      "type": "function"
    }
  ],
  "bytecode": "0x6080604052600060015534801561001557600080fd5b5033600360006101000a81548173ffffffffffffffffffffffffffffffffffffffff021916908373ffffffffffffffffffffffffffffffffffffffff160217905550611120806100666000396000f3fe608060405234801561001057600080fd5b50600436106100a95760003560e01c8063c3b845a611610071578063c3b845a6146103ba578063d67c9961146103e8578063ea2a352214610416578063f468e89814610653578063f6f58b5414610681578063f851a440146106af576100a9565b806306fdde03146100ae5780630c3cae65146101315780636becaf331461014f5780636dc55aaa1461035e578063b8adaa111461038c575b600080fd5b6100b66106f9565b6040518080602001828103825283818151815260200191508051906020019080838360005b838110156100f65780820151818401526020810190506100db565b50505050905090810190601f1680156101235780820380516001836020036101000a031916815260200191505b509250505060405180910390f35b610139610797565b6040518082815260200191505060405180910390f35b61017b6004803603602081101561016557600080fd5b810190808035906020019092919050505061079d565b604051808c81526020018b8152602001806020018a815260200189815260200180602001806020018881526020018781526020018673ffffffffffffffffffffffffffffffffffffffff1673ffffffffffffffffffffffffffffffffffffffff1681526020018573ffffffffffffffffffffffffffffffffffffffff1673ffffffffffffffffffffffffffffffffffffffff16815260200184810384528d818151815260200191508051906020019080838360005b8381101561024b578082015181840152602081019050610230565b50505050905090810190601f1680156102785780820380516001836020036101000a031916815260200191505b5084810383528a818151815260200191508051906020019080838360005b838110156102b1578082015181840152602081019050610296565b50505050905090810190601f1680156102de5780820380516001836020036101000a031916815260200191505b50848103825289818151815260200191508051906020019080838360005b838110156103175780820151818401526020810190506102fc565b50505050905090810190601f1680156103445780820380516001836020036101000a031916815260200191505b509e50505050505050505050505050505060405180910390f35b61038a6004803603602081101561037457600080fd5b81019080803590602001909291905050506109ff565b005b6103b8600480360360208110156103a257600080fd5b8101908080359060200190929190505050610ab7565b005b6103e6600480360360208110156103d057600080fd5b8101908080359060200190929190505050610b4c565b005b610414600480360360208110156103fe57600080fd5b8101908080359060200190929190505050610c26565b005b610651600480360360e081101561042c57600080fd5b810190808035906020019064010000000081111561044957600080fd5b82018360208201111561045b57600080fd5b8035906020019184600183028401116401000000008311171561047d57600080fd5b91908080601f016020809104026020016040519081016040528093929190818152602001838380828437600081840152601f19601f820116905080830192505050505050509192919290803590602001906401000000008111156104e057600080fd5b8201836020820111156104f257600080fd5b8035906020019184600183028401116401000000008311171561051457600080fd5b91908080601f016020809104026020016040519081016040528093929190818152602001838380828437600081840152601f19601f8201169050808301925050505050505091929192908035906020019064010000000081111561057757600080fd5b82018360208201111561058957600080fd5b803590602001918460018302840111640100000000831117156105ab57600080fd5b91908080601f016020809104026020016040519081016040528093929190818152602001838380828437600081840152601f19601f8201169050808301925050505050505091929192908035906020019092919080359060200190929190803573ffffffffffffffffffffffffffffffffffffffff169060200190929190803573ffffffffffffffffffffffffffffffffffffffff169060200190929190505050610cbb565b005b61067f6004803603602081101561066957600080fd5b8101908080359060200190929190505050610e8e565b005b6106ad6004803603602081101561069757600080fd5b8101908080359060200190929190505050610f46565b005b6106b7611020565b604051808273ffffffffffffffffffffffffffffffffffffffff1673ffffffffffffffffffffffffffffffffffffffff16815260200191505060405180910390f35b60008054600181600116156101000203166002900480601f01602080910402602001604051908101604052809291908181526020018280546001816001161561010002031660029004801561078f5780601f106107645761010080835404028352916020019161078f565b820191906000526020600020905b81548152906001019060200180831161077257829003601f168201915b505050505081565b60015481565b6002602052806000526040600020600091509050806000015490806001015490806002018054600181600116156101000203166002900480601f0160208091040260200160405190810160405280929190818152602001828054600181600116156101000203166002900480156108555780601f1061082a57610100808354040283529160200191610855565b820191906000526020600020905b81548152906001019060200180831161083857829003601f168201915b505050505090806003015490806004015490806005018054600181600116156101000203166002900480601f0160208091040260200160405190810160405280929190818152602001828054600181600116156101000203166002900480156108ff5780601f106108d4576101008083540402835291602001916108ff565b820191906000526020600020905b8154815290600101906020018083116108e257829003601f168201915b505050505090806006018054600181600116156101000203166002900480601f01602080910402602001604051908101604052809291908181526020018280546001816001161561010002031660029004801561099d5780601f106109725761010080835404028352916020019161099d565b820191906000526020600020905b81548152906001019060200180831161098057829003601f168201915b5050505050908060070154908060080154908060090160009054906101000a900473ffffffffffffffffffffffffffffffffffffffff169080600a0160009054906101000a900473ffffffffffffffffffffffffffffffffffffffff1690508b565b3373ffffffffffffffffffffffffffffffffffffffff1660026000838152602001908152602001600020600a0160009054906101000a900473ffffffffffffffffffffffffffffffffffffffff1673ffffffffffffffffffffffffffffffffffffffff16148015610a86575060006002600083815260200190815260200160002060040154145b610a8f57600080fd5b6001600260008381526020019081526020016000206004016000828254019250508190555050565b3373ffffffffffffffffffffffffffffffffffffffff16600360009054906101000a900473ffffffffffffffffffffffffffffffffffffffff1673ffffffffffffffffffffffffffffffffffffffff1614610b1157600080fd5b600460026000838152602001908152602001600020600301819055506004600260008381526020019081526020016000206004018190555050565b3373ffffffffffffffffffffffffffffffffffffffff1660026000838152602001908152602001600020600a0160009054906101000a900473ffffffffffffffffffffffffffffffffffffffff1673ffffffffffffffffffffffffffffffffffffffff16148015610bf5575060016002600083815260200190815260200160002060040154148015610bf4575060006002600083815260200190815260200160002060030154115b5b610bfe57600080fd5b6001600260008381526020019081526020016000206004016000828254019250508190555050565b3373ffffffffffffffffffffffffffffffffffffffff16600360009054906101000a900473ffffffffffffffffffffffffffffffffffffffff1673ffffffffffffffffffffffffffffffffffffffff1614610c8057600080fd5b600360026000838152602001908152602001600020600301819055506003600260008381526020019081526020016000206004018190555050565b600160008154809291906001019190505550604051806101600160405280600154815260200142815260200188815260200160008152602001600081526020018781526020018681526020018581526020018481526020018373ffffffffffffffffffffffffffffffffffffffff1681526020018273ffffffffffffffffffffffffffffffffffffffff1681525060026000600154815260200190815260200160002060008201518160000155602082015181600101556040820151816002019080519060200190610d8e929190611046565b50606082015181600301556080820151816004015560a0820151816005019080519060200190610dbf929190611046565b5060c0820151816006019080519060200190610ddc929190611046565b5060e0820151816007015561010082015181600801556101208201518160090160006101000a81548173ffffffffffffffffffffffffffffffffffffffff021916908373ffffffffffffffffffffffffffffffffffffffff16021790555061014082015181600a0160006101000a81548173ffffffffffffffffffffffffffffffffffffffff021916908373ffffffffffffffffffffffffffffffffffffffff16021790555090505050505050505050565b3373ffffffffffffffffffffffffffffffffffffffff166002600083815260200190815260200160002060090160009054906101000a900473ffffffffffffffffffffffffffffffffffffffff1673ffffffffffffffffffffffffffffffffffffffff16148015610f15575060006002600083815260200190815260200160002060030154145b610f1e57600080fd5b6001600260008381526020019081526020016000206003016000828254019250508190555050565b3373ffffffffffffffffffffffffffffffffffffffff166002600083815260200190815260200160002060090160009054906101000a900473ffffffffffffffffffffffffffffffffffffffff1673ffffffffffffffffffffffffffffffffffffffff16148015610fef575060016002600083815260200190815260200160002060030154148015610fee575060006002600083815260200190815260200160002060040154115b5b610ff857600080fd5b6001600260008381526020019081526020016000206003016000828254019250508190555050565b600360009054906101000a900473ffffffffffffffffffffffffffffffffffffffff1681565b828054600181600116156101000203166002900490600052602060002090601f016020900481019282601f1061108757805160ff19168380011785556110b5565b828001600101855582156110b5579182015b828111156110b4578251825591602001919060010190611099565b5b5090506110c291906110c6565b5090565b6110e891905b808211156110e45760008160009055506001016110cc565b5090565b9056fea265627a7a723158209b4dc30a21bcdc20757317af2e078b16638aa2eac599f36c2a2d67e0e39ab76d64736f6c63430005100032",
  "source": "pragma solidity ^0.5.0;\n\ncontract EContract{\n    string public name;\n    uint public e_contractCount = 0;\n    mapping (uint => econ) public e_contracts;//合同索引\n    address public admin;\n    struct econ {\n         uint id;//合同编号\n         uint createTime;//发布时间，用当前时间表示\n         string content;//内容\n         uint state1; //state1：par1状态 0为未签署 1为未确认\n         uint state2; //state2: par2状态 0未签署 1未确认\n         string nickname1;//签署姓名1\n         string nickname2;//签署姓名2     \n         uint idCard1;//身份证信息1\n         uint idCard2;//身份证信息1\n         address  par1;//签署地址1\n         address  par2;//签署地址2\n    }\n\n\n   //构造函数\n    constructor () public {\n        admin=msg.sender;\n    }\n\n    //创建合同\n    function createEcontract (string memory content,string memory nickname1,string memory nickname2,uint idCard1,uint idCard2,address par1,address par2) public {\n       // 自增 合同序列从1开始\n        e_contractCount ++;\n        //address  _author=msg.sender;\n        e_contracts[e_contractCount] = econ(e_contractCount,now,content,0,0,nickname1,nickname2,idCard1,idCard2,par1,par2);\n         \n    }\n\n\n    //地址1签署合同\n    function sign1 (uint num) public {\n        require(e_contracts[num].par1 == msg.sender && e_contracts[num].state1==0);\n        e_contracts[num].state1 += 1;\n    }\n\n\n    //地址2签署合同\n    function sign2 (uint num) public {\n         require(e_contracts[num].par2 == msg.sender && e_contracts[num].state2==0);\n         e_contracts[num].state2 += 1;\n    }\n\n    //地址1确认合同\n    function confirm1 (uint num) public {\n        require(e_contracts[num].par1 == msg.sender\n        && (e_contracts[num].state1==1&&(e_contracts[num].state2>0)));\n        e_contracts[num].state1 += 1;\n    }\n\n    //地址2确认合同\n    function confirm2 (uint num) public {\n         require(e_contracts[num].par2 == msg.sender\n         && (e_contracts[num].state2==1&&(e_contracts[num].state1>0)));\n         e_contracts[num].state2 += 1;\n    }\n\n\n\n    //管理员批准合同\n    function pass(uint num) public {\n        require(admin==msg.sender);\n        e_contracts[num].state1=3;\n        e_contracts[num].state2=3;\n    }\n\n\n    //管理员未批准=>已中止\n     function reject(uint num) public {\n            require(admin==msg.sender);\n            e_contracts[num].state1=4;\n            e_contracts[num].state2=4;\n        }\n} ",
  "sourcePath": "D:\\基于truffle的电子合同签署平台\\contracts\\EContract.sol",
  "compiler": {
    "name": "solc",
    "version": "0.5.16+commit.9c3226ce.Emscripten.clang"
  },
  "schemaVersion": "3.1.0",
  "updatedAt": "2020-06-06T14:21:53.482Z",
  "networkType": "ethereum",
  "devdoc": {
    "methods": {}
  },
  "userdoc": {
    "methods": {}
  }
}